:100000000C9458000C9480000C9480000C94800098
:100010000C9480000C9480000C9480000C94800060
:100020000C9480000C9480000C9480000C94800050
:100030000C9480000C9480000C9480000C94800040
:100040000C9461040C9480000C94D1040C94AB04C7
:100050000C9480000C9480000C9480000C94800020
:100060000C9403050C94800000000000250028007B
:100070002B00040404040404040402020202020229
:10008000030303030303010204081020408001025C
:1000900004081020010204081020000000080002DB
:1000A0000100000304070000000000000000220619
:1000B00011241FBECFEFD8E0DEBFCDBF11E0A0E01E
:1000C000B1E0E4E6FFE002C005900D92A835B1076B
:1000D000D9F722E0A8E5B1E001C01D92A43CB20727
:1000E000E1F710E0C8E5D0E004C02197FE010E94CE
:1000F000AA07C735D107C9F70E945B060C94B00761
:100100000C94000090E0FC01E656FF4F2491FC01A6
:10011000EA57FF4F3491FC01EE58FF4FE491EE2374
:10012000C9F0222339F0233001F1A8F4213019F16C
:10013000223029F1F0E0EE0FFF1FE859FF4FA591A3
:10014000B4918FB7F894EC91611126C030953E239D
:100150003C938FBF08952730A9F02830C9F0243090
:1001600049F7809180008F7D03C0809180008F7758
:1001700080938000DFCF84B58F7784BDDBCF84B5DB
:100180008F7DFBCF8091B0008F778093B000D2CF6E
:100190008091B0008F7DF9CF3E2BDACF3FB7F89436
:1001A0008091C7019091C801A091C901B091CA0185
:1001B00026B5A89B05C02F3F19F00196A11DB11DC2
:1001C0003FBFBA2FA92F982F8827BC01CD01620FFE
:1001D000711D811D911D42E0660F771F881F991FB9
:1001E0004A95D1F7089508950895AF92BF92CF929E
:1001F000DF92EF92FF920F931F93CF93DF936C01E7
:100200007B018B01040F151FEB015E01AE18BF08C7
:10021000C017D10759F06991D601ED91FC91019079
:10022000F081E02DC6010995892B79F7C501DF9191
:10023000CF911F910F91FF90EF90DF90CF90BF90E3
:10024000AF900895FC01538D448D252F30E0842F0D
:1002500090E0821B930B541710F0CF9608950197EE
:100260000895FC01918D828D981761F0A28DAE0FDB
:10027000BF2FB11D5D968C91928D9F5F9F73928F62
:1002800090E008958FEF9FEF0895FC01918D828D8E
:10029000981731F0828DE80FF11D858D90E008955B
:1002A0008FEF9FEF0895FC01918D228D892F90E0B3
:1002B000805C9F4F821B91098F73992708958BE172
:1002C00092E00E94530121E0892B09F420E0822F63
:1002D000089580E090E0892B29F00E945F01811150
:1002E0000C9400000895FC01A48DA80FB92FB11D36
:1002F000A35ABF4F2C91848D90E001968F7399275C
:10030000848FA689B7892C93A089B1898C91837039
:1003100080648C93938D848D981306C00288F38932
:10032000E02D80818F7D80830895EF92FF920F935F
:100330001F93CF93DF93EC0181E0888F9B8D8C8D91
:1003400098131AC0E889F989808185FF15C09FB785
:10035000F894EE89FF896083E889F9898081837048
:10036000806480839FBF81E090E0DF91CF911F91F7
:100370000F91FF90EF900895F62E0B8D10E00F5F18
:100380001F4F0F731127E02E8C8D8E110CC00FB6EE
:1003900007FCFACFE889F989808185FFF5CFCE0186
:1003A0000E947301F1CFEB8DEC0FFD2FF11DE35A8D
:1003B000FF4FF0829FB7F8940B8FEA89FB89808109
:1003C0008062CFCFCF93DF93EC01888D8823B9F083
:1003D000AA89BB89E889F9898C9185FD03C0808150
:1003E00086FD0DC00FB607FCF7CF8C9185FFF2CFCD
:1003F000808185FFEDCFCE010E947301E9CFDF91AF
:10040000CF91089520919901260F3327331F213270
:100410003105ECF42091F101FC0190E080E0243002
:1004200069F082E00895A09199012191AC014758AB
:100430005E4FA40FB52FB11D2C930196861798F32C
:1004400080919901680F6093990180E0089581E09F
:1004500008951092F10181E08093F0011092CB0198
:1004600061E082E10E94820061E083E10E948200FB
:10047000E9EBF0E080818E7F808380818D7F8083B7
:1004800088E48093B80085E48093BC000895CF93FE
:10049000DF9391E0909378018823B9F0C091B80080
:1004A000D091BA008091BC008A7B8093BC0060E050
:1004B00082E10E94820060E083E10E9482000E944B
:1004C0002902D093BA00C093B800DF91CF9108956C
:1004D000CF92DF92EF92FF920F931F93CF93DF9310
:1004E000D0911A0281E0D13208F09CC0C09119026B
:1004F0000E94CE006B017C018091F10181116CC0E2
:1005000082E08093F10181E08093F0018FEF80938E
:10051000EF011092EE01D093ED01A9EFB1E0EDEC07
:10052000F1E080E0D8138DC01092CC018091CC0115
:10053000CC0FC82BC093CC018091CB01813009F046
:1005400084C01092CB010E94CE006B017C0180918F
:10055000CC018093BB008091F3019091F401A091B4
:10056000F501B091F601892B8A2B8B2BA1F00E940B
:10057000CE000091F3011091F4012091F50130912A
:10058000F6016C197D098E099F09061717072807C0
:10059000390708F442C08091BC0083FDD8CF85ECB8
:1005A0008093BC000E94CE006B017C018091F10120
:1005B000823009F44CC08091EF018F3F09F469C08B
:1005C0008091EF01803209F466C08091EF018033A1
:1005D00009F463C084E026C08091F3019091F40196
:1005E000A091F501B091F601892B8A2B8B2B09F490
:1005F00083CF0E94CE000091F3011091F40120916D
:10060000F5013091F6016C197D098E099F090617D5
:1006100017072807390708F06FCF8091F2010E9471
:10062000470285E01092F80110921A021092F70129
:10063000DF91CF911F910F91FF90EF90DF90CF90BE
:1006400008959D9191938F5F6DCF85EEA9CF809195
:10065000F3019091F401A091F501B091F601892B7D
:100660008A2B8B2B09F4A2CF0E94CE000091F301BC
:100670001091F4012091F5013091F6016C197D097A
:100680008E099F09061717072807390708F08ECF2C
:10069000C4CF80E0C7CF82E0C5CF83E0C3CF089549
:1006A000E091C1018091C001E81730F4F0E0E85A10
:1006B000FE4F808190E008958FEF9FEF0895909115
:1006C000C1018091C0012FEF3FEF981748F4E92F47
:1006D000F0E0E85AFE4F208130E09F5F9093C10127
:1006E000C90108958091C0019091C101891B990BA6
:1006F0000895CF92DF92EF92FF920F931F93CF93C3
:10070000DF937C01CB018A012091F701222389F03C
:10071000EB016B01C40ED51ECC15DD0569F06991A6
:10072000D701ED91FC910190F081E02DC701099571
:10073000F3CF642F0E940202C801DF91CF911F9175
:100740000F91FF90EF90DF90CF900895CF93DF93BC
:100750001F92CDB7DEB769832091F7012223F9F00C
:1007600020911A02203258F021E030E0FC0133835E
:10077000228390E080E00F90DF91CF9108958091E7
:10078000F801E82FF0E0E750FE4F998190838F5FEA
:100790008093F80180931A0281E090E0ECCF61E051
:1007A000CE0101960E940202F7CF90E080E008950A
:1007B000FC0101900020E9F73197AF01481B590B6C
:1007C000BC018BE192E00C94F5008F929F92AF9266
:1007D000BF920F931F93CF93DF93CDB7DEB7A1974F
:1007E0000FB6F894DEBF0FBECDBF19A2423008F499
:1007F0004AE08E010F5D1F4F842E912CB12CA12C4D
:10080000A50194010E948807E62FB901CA01EA30C8
:10081000F4F4E05DD801EE938D01232B242B252BDE
:1008200079F790E080E0109719F0CD010E94D8038D
:10083000A1960FB6F894DEBF0FBECDBFDF91CF916A
:100840001F910F91BF90AF909F908F900895E95C9A
:10085000E1CF85ED8093BC008091F3019091F4018C
:10086000A091F501B091F6010796A11DB11D23E0FD
:10087000B695A795979587952A95D1F72091BC00B5
:1008800024FD03C01092F10108954091F3015091AD
:10089000F4016091F5017091F601452B462B472B31
:1008A00069F30097A105B10541F02AE22A95F1F715
:1008B00000C00197A109B109E1CF8091F2010C9428
:1008C00047021F920F920FB60F9211242F933F935E
:1008D0008F939F93AF93BF938091C3019091C40175
:1008E000A091C501B091C6013091C20123E0230F50
:1008F0002D3758F50196A11DB11D2093C20180939B
:10090000C3019093C401A093C501B093C601809127
:10091000C7019091C801A091C901B091CA01019687
:10092000A11DB11D8093C7019093C801A093C90177
:10093000B093CA01BF91AF919F918F913F912F9139
:100940000F900FBE0F901F90189526E8230F029668
:10095000A11DB11DD2CF1F920F920FB60F9211247D
:100960002F933F934F935F936F937F938F939F93B7
:10097000AF93BF93EF93FF938BE192E00E947301DB
:10098000FF91EF91BF91AF919F918F917F916F9167
:100990005F914F913F912F910F900FBE0F901F903D
:1009A00018951F920F920FB60F9211242F938F93C9
:1009B0009F93EF93FF93E0912B02F0912C028081A3
:1009C000E0913102F091320282FD1BC09081809152
:1009D00034028F5F8F7320913502821741F0E091CE
:1009E0003402F0E0E55EFD4F958F80933402FF9175
:1009F000EF919F918F912F910F900FBE0F901F90AD
:100A000018958081F4CF1F920F920FB60F92112488
:100A10002F933F934F935F936F937F938F939F9306
:100A2000AF93BF93EF93FF938091B900887F803697
:100A300009F44AC0F0F5883209F4A7C018F58031EE
:100A400009F49BC0B8F4882309F4F9C0883009F48C
:100A500094C0FF91EF91BF91AF919F918F917F9142
:100A60006F915F914F913F912F910F900FBE0F901B
:100A70001F901895883109F488C0803251F780930F
:100A8000EF0114C0803409F49DC040F48033B9F301
:100A90008833F9F68093EF0185ECB0C0803509F416
:100AA00085C0883509F496C0883499F60E942904D7
:100AB000D0CF883909F48CC038F5883729F050F444
:100AC000883611F0803729F683E08093F101109287
:100AD000BB0157C0883809F47BC0803919F08038D1
:100AE00009F0B7CF8091BB01803208F071C0E0916E
:100AF000BB0181E08E0F8093BB018091BB00F0E0D1
:100B0000E556FE4F80833DC0803B39F0E0F4803AEB
:100B100009F479C0883A09F09CCF84E08093F10110
:100B200010929A0110929901E091BE01F091BF01DB
:100B300009958091990181110FC081E080939901FD
:100B40001092790109C0803C09F4A6CF883C09F4D1
:100B5000A3CF883B09F07DCFE0919A0181E08E0F11
:100B600080939A01F0E0E758FE4F80818093BB00AC
:100B700090919A018091990129C08091CC01809334
:100B8000BB0085EC8093BC0064CF9091EE01809116
:100B9000ED01981758F5E091EE0181E08E0F8093FA
:100BA000EE01F0E0E353FE4F8081E9CFE091EE01EA
:100BB00081E08E0F8093EE018091BB00F0E0E35363
:100BC000FE4F80839091EE018091ED019817C8F25D
:100BD00085E8D8CFE091EE0181E08E0F8093EE01A1
:100BE0008091BB00F0E0E353FE4F80838091F001E1
:100BF00081115CCF81E08093CB0184EA8093BC00BB
:100C00001092F10126CF85EC8093BC001092F10187
:100C10008091BB01803230F4E091BB01F0E0E556F9
:100C2000FE4F10826091BB0170E0E091BC01F09139
:100C3000BD018BE991E009951092BB010ACF10929A
:100C4000EF0134CFEBE1F2E01382128288EE93E001
:100C5000A0E0B0E084839583A683B78324E031E0ED
:100C60003183208325EC30E03587248724EC30E085
:100C70003787268720EC30E0318B208B21EC30E069
:100C8000338B228B22EC30E0358B248B26EC30E04A
:100C9000378B268B118E128E138E148EE8EBF2E0BA
:100CA0001382128284839583A683B78386E191E0C1
:100CB000918380830895789484B5826084BD84B5DF
:100CC000816084BD85B5826085BD85B5816085BD47
:100CD00080916E00816080936E00109281008091FF
:100CE0008100826080938100809181008160809387
:100CF0008100809180008160809380008091B100AC
:100D000084608093B1008091B00081608093B000D6
:100D100080917A00846080937A0080917A0082606A
:100D200080937A0080917A00816080937A0080912C
:100D30007A00806880937A001092C1000E94CE00F1
:100D40004B015C0188EEC82E83E0D82EE12CF12CFB
:100D50000E94CE00681979098A099B09683E734090
:100D600081059105A8F321E0C21AD108E108F10834
:100D700088EE880E83E0981EA11CB11CC114D1041A
:100D8000E104F10429F71092C1011092C001109200
:100D9000F80110921A020E94290283EF90E09093CA
:100DA000BF018093BE0184EF90E09093BD018093DA
:100DB000BC01E0912B02F0912C0282E08083E09153
:100DC0002702F09128021082E0912902F0912A0274
:100DD00080E1808310923302E0912F02F091300283
:100DE00086E08083E0912D02F0912E028081806167
:100DF0008083E0912D02F0912E02808188608083B3
:100E0000E0912D02F0912E02808180688083E09134
:100E10002D02F0912E0280818F7D808384E291E00B
:100E20000E94D80387E391E00E94D803812C912C83
:100E3000540111E000E7C1E0D0E01093F701009306
:100E400019021092F80110921A02BE01082C01C07A
:100E5000660F0A94EAF788EB92E00E94A6030E94CC
:100E600068028AE391E00E94D8034AE0C501B40118
:100E70000E94E50387E391E00E94D803C12CD12CA6
:100E800076018C2D90E8C916D104E104F10409F132
:100E90008037C9F01093F701C09219021092F8013F
:100EA00010921A020E94680281110DC085E491E03F
:100EB0000E94D80340E1C701B6010E94E50387E321
:100EC00091E00E94D8032FEFC21AD20AE20AF20A76
:100ED000D8CF8FEF881A980AA80AB80A94E0891622
:100EE0009104A104B10409F0A8CF82E591E00E9429
:100EF000D80387E391E00E94D803C0E0D0E02097B8
:100F0000F1F30E945F018823D1F30E940000F7CF24
:100F1000A1E21A2EAA1BBB1BFD010DC0AA1FBB1FFD
:100F2000EE1FFF1FA217B307E407F50720F0A21B6F
:100F3000B30BE40BF50B661F771F881F991F1A94DC
:100F400069F760957095809590959B01AC01BD0106
:100F5000CF010895EE0FFF1F0590F491E02D099445
:040F6000F894FFCF33
:100F6400000000009501F5002201E2015301310166
:100F7400450100000000A6037903D5034F03720363
:100F84005F0350030A5043415363616E6E657220E0
:100F9400726561647921000D0A0050434120506F4D
:100FA4007274202300466F756E64204932432030EA
:080FB40078000A646F6E65000D
:00000001FF
